{
  "contractName": "ChainlinkPriceFeed",
  "abi": [
    {
      "inputs": [],
      "stateMutability": "nonpayable",
      "type": "constructor"
    },
    {
      "inputs": [
        {
          "internalType": "address",
          "name": "assetAddress",
          "type": "address"
        }
      ],
      "name": "getLatestPrice",
      "outputs": [
        {
          "internalType": "int256",
          "name": "",
          "type": "int256"
        },
        {
          "internalType": "uint80",
          "name": "",
          "type": "uint80"
        },
        {
          "internalType": "int256",
          "name": "",
          "type": "int256"
        },
        {
          "internalType": "string",
          "name": "",
          "type": "string"
        },
        {
          "internalType": "uint256",
          "name": "",
          "type": "uint256"
        }
      ],
      "stateMutability": "view",
      "type": "function",
      "constant": true
    }
  ],
  "bytecode": "0x608060405234801561001057600080fd5b5061067f806100206000396000f3fe608060405234801561001057600080fd5b506004361061002b5760003560e01c806316345f1814610030575b600080fd5b61004a600480360381019061004591906102ea565b610064565b60405161005b95949392919061045a565b60405180910390f35b6000806000606060008086905060008060008060008573ffffffffffffffffffffffffffffffffffffffff1663feaf968c6040518163ffffffff1660e01b815260040160a06040518083038186803b1580156100bf57600080fd5b505afa1580156100d3573d6000803e3d6000fd5b505050506040513d601f19601f820116820180604052508101906100f79190610354565b9450945094509450945060608673ffffffffffffffffffffffffffffffffffffffff16637284e4166040518163ffffffff1660e01b815260040160006040518083038186803b15801561014957600080fd5b505afa15801561015d573d6000803e3d6000fd5b505050506040513d6000823e3d601f19601f820116820180604052508101906101869190610313565b905060008773ffffffffffffffffffffffffffffffffffffffff1663313ce5676040518163ffffffff1660e01b815260040160206040518083038186803b1580156101d057600080fd5b505afa1580156101e4573d6000803e3d6000fd5b505050506040513d601f19601f8201168201806040525081019061020891906103cb565b60ff16905085878284879c509c509c509c509c50505050505050505091939590929450565b60008135905061023c816105d6565b92915050565b600081519050610251816105ed565b92915050565b600082601f83011261026857600080fd5b815161027b610276826104e1565b6104b4565b9150808252602083016020830185838301111561029757600080fd5b6102a2838284610592565b50505092915050565b6000815190506102ba81610604565b92915050565b6000815190506102cf81610632565b92915050565b6000815190506102e48161061b565b92915050565b6000602082840312156102fc57600080fd5b600061030a8482850161022d565b91505092915050565b60006020828403121561032557600080fd5b600082015167ffffffffffffffff81111561033f57600080fd5b61034b84828501610257565b91505092915050565b600080600080600060a0868803121561036c57600080fd5b600061037a888289016102c0565b955050602061038b88828901610242565b945050604061039c888289016102ab565b93505060606103ad888289016102ab565b92505060806103be888289016102c0565b9150509295509295909350565b6000602082840312156103dd57600080fd5b60006103eb848285016102d5565b91505092915050565b6103fd8161053b565b82525050565b600061040e8261050d565b6104188185610518565b9350610428818560208601610592565b610431816105c5565b840191505092915050565b61044581610565565b82525050565b6104548161057c565b82525050565b600060a08201905061046f60008301886103f4565b61047c602083018761044b565b61048960408301866103f4565b818103606083015261049b8185610403565b90506104aa608083018461043c565b9695505050505050565b6000604051905081810181811067ffffffffffffffff821117156104d757600080fd5b8060405250919050565b600067ffffffffffffffff8211156104f857600080fd5b601f19601f8301169050602081019050919050565b600081519050919050565b600082825260208201905092915050565b600061053482610545565b9050919050565b6000819050919050565b600073ffffffffffffffffffffffffffffffffffffffff82169050919050565b6000819050919050565b600060ff82169050919050565b600069ffffffffffffffffffff82169050919050565b60005b838110156105b0578082015181840152602081019050610595565b838111156105bf576000848401525b50505050565b6000601f19601f8301169050919050565b6105df81610529565b81146105ea57600080fd5b50565b6105f68161053b565b811461060157600080fd5b50565b61060d81610565565b811461061857600080fd5b50565b6106248161056f565b811461062f57600080fd5b50565b61063b8161057c565b811461064657600080fd5b5056fea264697066735822122020572e0ba7a1c5a22c7346c3eb476ed230a132336d7d5689c2ad94f6b5e1eb6264736f6c634300060c0033",
  "immutableReferences": {},
  "source": "// SPDX-License-Identifier: MIT\npragma solidity ^0.6.6;\npragma experimental ABIEncoderV2;\n\n//To run on remix use Injected Web3 with Metamask on Rinkeby network activated\n\nimport \"@chainlink/contracts/src/v0.6/interfaces/AggregatorV3Interface.sol\";\n\ncontract ChainlinkPriceFeed {\n    \n    /**\n     * Network: Kovan\n     * Aggregator: ETH/USD\n     */\n    constructor() public {\n        // Examples -> Rinkeby network \n        // See https://docs.chain.link/docs/reference-contracts/ for available feeds and blockchains\n        // priceData[\"ETHUSD\"] = 0x8A753747A1Fa494EC906cE90E9f37563A8AF630e;\n        // priceData[\"BTCUSD\"] = 0xECe365B379E1dD183B20fc5f022230C044d51404;\n        // priceData[\"LINKUSD\"] = 0xd8bD0a1cB028a31AA859A21A3758685a95dE4623;\n        // priceData[\"AUDUSD\"]= 0x21c095d2aDa464A294956eA058077F14F66535af;\n    }\n\n    /**\n     * Returns the latest price information from the asset address\n     */\n    function getLatestPrice(address assetAddress) public view returns \n    (int, uint80, int, string memory, uint ) \n    {\n        AggregatorV3Interface priceFeed = AggregatorV3Interface(assetAddress);\n        (            \n            uint80 roundID, \n            int price,\n            uint startedAt,\n            uint timeStamp,\n            uint80 answeredInRound\n        ) = priceFeed.latestRoundData();\n        string memory description = priceFeed.description();\n        int decimals = priceFeed.decimals();\n\n        return (price, roundID, decimals, description, timeStamp);\n    }\n}\n",
  "sourcePath": "/Users/alisonhaire/Desktop/Blockchain/Chainlink/chainlink-keepers/contracts/ChainlinkPriceFeed.sol",
  "compiler": {
    "name": "solc",
    "version": "0.6.12+commit.27d51765.Emscripten.clang"
  },
  "schemaVersion": "3.4.1",
  "updatedAt": "2021-07-19T11:15:05.699Z",
  "networkType": "ethereum",
  "devdoc": {
    "kind": "dev",
    "methods": {},
    "version": 1
  },
  "userdoc": {
    "kind": "user",
    "methods": {
      "constructor": "Network: Kovan Aggregator: ETH/USD",
      "getLatestPrice(address)": {
        "notice": "Returns the latest price information from the asset address"
      }
    },
    "version": 1
  }
}