{
  "contractName": "Raffle",
  "abi": [
    {
      "inputs": [],
      "stateMutability": "nonpayable",
      "type": "constructor"
    },
    {
      "inputs": [],
      "name": "contractAddress",
      "outputs": [
        {
          "internalType": "address",
          "name": "",
          "type": "address"
        }
      ],
      "stateMutability": "view",
      "type": "function",
      "constant": true
    },
    {
      "inputs": [],
      "name": "entryCost",
      "outputs": [
        {
          "internalType": "uint256",
          "name": "",
          "type": "uint256"
        }
      ],
      "stateMutability": "view",
      "type": "function",
      "constant": true
    },
    {
      "inputs": [],
      "name": "manager",
      "outputs": [
        {
          "internalType": "address payable",
          "name": "",
          "type": "address"
        }
      ],
      "stateMutability": "view",
      "type": "function",
      "constant": true
    },
    {
      "inputs": [
        {
          "internalType": "uint256",
          "name": "",
          "type": "uint256"
        }
      ],
      "name": "players",
      "outputs": [
        {
          "internalType": "address payable",
          "name": "",
          "type": "address"
        }
      ],
      "stateMutability": "view",
      "type": "function",
      "constant": true
    },
    {
      "inputs": [],
      "name": "prizePool",
      "outputs": [
        {
          "internalType": "uint256",
          "name": "",
          "type": "uint256"
        }
      ],
      "stateMutability": "view",
      "type": "function",
      "constant": true
    },
    {
      "inputs": [],
      "name": "randomWinnerNumber",
      "outputs": [
        {
          "internalType": "uint256",
          "name": "",
          "type": "uint256"
        }
      ],
      "stateMutability": "view",
      "type": "function",
      "constant": true
    },
    {
      "inputs": [],
      "name": "roundNumber",
      "outputs": [
        {
          "internalType": "uint256",
          "name": "",
          "type": "uint256"
        }
      ],
      "stateMutability": "view",
      "type": "function",
      "constant": true
    },
    {
      "inputs": [
        {
          "internalType": "uint256",
          "name": "",
          "type": "uint256"
        }
      ],
      "name": "winnerRegistry",
      "outputs": [
        {
          "internalType": "address",
          "name": "winnerAddress",
          "type": "address"
        },
        {
          "internalType": "uint256",
          "name": "winnerAmount",
          "type": "uint256"
        },
        {
          "internalType": "uint256",
          "name": "round",
          "type": "uint256"
        }
      ],
      "stateMutability": "view",
      "type": "function",
      "constant": true
    },
    {
      "inputs": [],
      "name": "enter",
      "outputs": [],
      "stateMutability": "payable",
      "type": "function",
      "payable": true
    },
    {
      "inputs": [],
      "name": "pickWinner",
      "outputs": [],
      "stateMutability": "nonpayable",
      "type": "function"
    },
    {
      "inputs": [],
      "name": "getPlayers",
      "outputs": [
        {
          "internalType": "address payable[]",
          "name": "",
          "type": "address[]"
        }
      ],
      "stateMutability": "view",
      "type": "function",
      "constant": true
    },
    {
      "inputs": [],
      "name": "getWinners",
      "outputs": [
        {
          "components": [
            {
              "internalType": "address",
              "name": "winnerAddress",
              "type": "address"
            },
            {
              "internalType": "uint256",
              "name": "winnerAmount",
              "type": "uint256"
            },
            {
              "internalType": "uint256",
              "name": "round",
              "type": "uint256"
            }
          ],
          "internalType": "struct Raffle.Winner[]",
          "name": "",
          "type": "tuple[]"
        }
      ],
      "stateMutability": "view",
      "type": "function",
      "constant": true
    },
    {
      "inputs": [
        {
          "internalType": "uint256",
          "name": "value",
          "type": "uint256"
        }
      ],
      "name": "setEntryCost",
      "outputs": [],
      "stateMutability": "nonpayable",
      "type": "function"
    },
    {
      "inputs": [],
      "name": "manualPickWinner",
      "outputs": [],
      "stateMutability": "nonpayable",
      "type": "function"
    },
    {
      "inputs": [],
      "name": "rugpullWithdrawEth",
      "outputs": [],
      "stateMutability": "nonpayable",
      "type": "function"
    }
  ],
  "bytecode": "0x608060405234801561001057600080fd5b5033600460006101000a81548173ffffffffffffffffffffffffffffffffffffffff021916908373ffffffffffffffffffffffffffffffffffffffff16021790555060018081905550306000806101000a81548173ffffffffffffffffffffffffffffffffffffffff021916908373ffffffffffffffffffffffffffffffffffffffff160217905550662386f26fc100006002819055506000600681905550610fbe806100be6000396000f3fe6080604052600436106100e85760003560e01c80638b5b9ccc1161008a578063e97dcb6211610059578063e97dcb62146102b0578063f3d7323b146102ba578063f6b4dfb4146102d1578063f71d96cb146102fc576100e8565b80638b5b9ccc14610206578063ae29f7f914610231578063ae42ced61461025a578063df15c37e14610285576100e8565b80634e2786fb116100c65780634e2786fb1461015a5780635d495aea14610185578063719ce73e1461019c5780637dd9c4ae146101c7576100e8565b80631eff7d9f146100ed5780633aaebe6814610118578063481c6a751461012f575b600080fd5b3480156100f957600080fd5b50610102610339565b60405161010f9190610e5b565b60405180910390f35b34801561012457600080fd5b5061012d61033f565b005b34801561013b57600080fd5b5061014461041b565b6040516101519190610dc5565b60405180910390f35b34801561016657600080fd5b5061016f610441565b60405161017c9190610e5b565b60405180910390f35b34801561019157600080fd5b5061019a610447565b005b3480156101a857600080fd5b506101b16106db565b6040516101be9190610e5b565b60405180910390f35b3480156101d357600080fd5b506101ee60048036038101906101e99190610b8e565b6106e1565b6040516101fd93929190610de0565b60405180910390f35b34801561021257600080fd5b5061021b610738565b6040516102289190610e17565b60405180910390f35b34801561023d57600080fd5b5061025860048036038101906102539190610b8e565b6107c6565b005b34801561026657600080fd5b5061026f61082a565b60405161027c9190610e5b565b60405180910390f35b34801561029157600080fd5b5061029a610830565b6040516102a79190610e39565b60405180910390f35b6102b86108f9565b005b3480156102c657600080fd5b506102cf610977565b005b3480156102dd57600080fd5b506102e66109db565b6040516102f39190610daa565b60405180910390f35b34801561030857600080fd5b50610323600480360381019061031e9190610b8e565b6109ff565b6040516103309190610dc5565b60405180910390f35b60075481565b600460009054906101000a900473ffffffffffffffffffffffffffffffffffffffff1673ffffffffffffffffffffffffffffffffffffffff163373ffffffffffffffffffffffffffffffffffffffff161461039957600080fd5b600460009054906101000a900473ffffffffffffffffffffffffffffffffffffffff1673ffffffffffffffffffffffffffffffffffffffff166108fc3073ffffffffffffffffffffffffffffffffffffffff16319081150290604051600060405180830381858888f19350505050158015610418573d6000803e3d6000fd5b50565b600460009054906101000a900473ffffffffffffffffffffffffffffffffffffffff1681565b60015481565b600460009054906101000a900473ffffffffffffffffffffffffffffffffffffffff1673ffffffffffffffffffffffffffffffffffffffff163373ffffffffffffffffffffffffffffffffffffffff16146104a157600080fd5b6005805490506104af610a3b565b816104b657fe5b066007819055506104c5610a7d565b60405180606001604052806005600754815481106104df57fe5b9060005260206000200160009054906101000a900473ffffffffffffffffffffffffffffffffffffffff1673ffffffffffffffffffffffffffffffffffffffff1681526020013073ffffffffffffffffffffffffffffffffffffffff163181526020016001548152509050600381908060018154018082558091505060019003906000526020600020906003020160009091909190915060008201518160000160006101000a81548173ffffffffffffffffffffffffffffffffffffffff021916908373ffffffffffffffffffffffffffffffffffffffff160217905550602082015181600101556040820151816002015550506005600754815481106105e257fe5b9060005260206000200160009054906101000a900473ffffffffffffffffffffffffffffffffffffffff1673ffffffffffffffffffffffffffffffffffffffff166108fc3073ffffffffffffffffffffffffffffffffffffffff16319081150290604051600060405180830381858888f19350505050158015610669573d6000803e3d6000fd5b50600067ffffffffffffffff8111801561068257600080fd5b506040519080825280602002602001820160405280156106b15781602001602082028036833780820191505090505b50600590805190602001906106c7929190610ab4565b5060006006819055506106d8610a70565b50565b60065481565b600381815481106106ee57fe5b90600052602060002090600302016000915090508060000160009054906101000a900473ffffffffffffffffffffffffffffffffffffffff16908060010154908060020154905083565b606060058054806020026020016040519081016040528092919081815260200182805480156107bc57602002820191906000526020600020905b8160009054906101000a900473ffffffffffffffffffffffffffffffffffffffff1673ffffffffffffffffffffffffffffffffffffffff1681526020019060010190808311610772575b5050505050905090565b600460009054906101000a900473ffffffffffffffffffffffffffffffffffffffff1673ffffffffffffffffffffffffffffffffffffffff163373ffffffffffffffffffffffffffffffffffffffff161461082057600080fd5b8060028190555050565b60025481565b60606003805480602002602001604051908101604052809291908181526020016000905b828210156108f057838290600052602060002090600302016040518060600160405290816000820160009054906101000a900473ffffffffffffffffffffffffffffffffffffffff1673ffffffffffffffffffffffffffffffffffffffff1673ffffffffffffffffffffffffffffffffffffffff1681526020016001820154815260200160028201548152505081526020019060010190610854565b50505050905090565b600254341461090757600080fd5b6005339080600181540180825580915050600190039060005260206000200160009091909190916101000a81548173ffffffffffffffffffffffffffffffffffffffff021916908373ffffffffffffffffffffffffffffffffffffffff1602179055503460065401600681905550565b600460009054906101000a900473ffffffffffffffffffffffffffffffffffffffff1673ffffffffffffffffffffffffffffffffffffffff163373ffffffffffffffffffffffffffffffffffffffff16146109d157600080fd5b6109d9610447565b565b60008054906101000a900473ffffffffffffffffffffffffffffffffffffffff1681565b60058181548110610a0c57fe5b906000526020600020016000915054906101000a900473ffffffffffffffffffffffffffffffffffffffff1681565b6000424433604051602001610a5293929190610d6d565b6040516020818303038152906040528051906020012060001c905090565b6001805401600181905550565b6040518060600160405280600073ffffffffffffffffffffffffffffffffffffffff16815260200160008152602001600081525090565b828054828255906000526020600020908101928215610b2d579160200282015b82811115610b2c5782518260006101000a81548173ffffffffffffffffffffffffffffffffffffffff021916908373ffffffffffffffffffffffffffffffffffffffff16021790555091602001919060010190610ad4565b5b509050610b3a9190610b3e565b5090565b5b80821115610b7557600081816101000a81549073ffffffffffffffffffffffffffffffffffffffff021916905550600101610b3f565b5090565b600081359050610b8881610f71565b92915050565b600060208284031215610ba057600080fd5b6000610bae84828501610b79565b91505092915050565b6000610bc38383610be7565b60208301905092915050565b6000610bdb8383610cf6565b60608301905092915050565b610bf081610efa565b82525050565b610bff81610efa565b82525050565b610c16610c1182610efa565b610f36565b82525050565b610c2581610ee8565b82525050565b610c3481610ee8565b82525050565b6000610c4582610e96565b610c4f8185610ec6565b9350610c5a83610e76565b8060005b83811015610c8b578151610c728882610bb7565b9750610c7d83610eac565b925050600181019050610c5e565b5085935050505092915050565b6000610ca382610ea1565b610cad8185610ed7565b9350610cb883610e86565b8060005b83811015610ce9578151610cd08882610bcf565b9750610cdb83610eb9565b925050600181019050610cbc565b5085935050505092915050565b606082016000820151610d0c6000850182610c1c565b506020820151610d1f6020850182610d38565b506040820151610d326040850182610d38565b50505050565b610d4181610f2c565b82525050565b610d5081610f2c565b82525050565b610d67610d6282610f2c565b610f5a565b82525050565b6000610d798286610d56565b602082019150610d898285610d56565b602082019150610d998284610c05565b601482019150819050949350505050565b6000602082019050610dbf6000830184610c2b565b92915050565b6000602082019050610dda6000830184610bf6565b92915050565b6000606082019050610df56000830186610c2b565b610e026020830185610d47565b610e0f6040830184610d47565b949350505050565b60006020820190508181036000830152610e318184610c3a565b905092915050565b60006020820190508181036000830152610e538184610c98565b905092915050565b6000602082019050610e706000830184610d47565b92915050565b6000819050602082019050919050565b6000819050602082019050919050565b600081519050919050565b600081519050919050565b6000602082019050919050565b6000602082019050919050565b600082825260208201905092915050565b600082825260208201905092915050565b6000610ef382610f0c565b9050919050565b6000610f0582610f0c565b9050919050565b600073ffffffffffffffffffffffffffffffffffffffff82169050919050565b6000819050919050565b6000610f4182610f48565b9050919050565b6000610f5382610f64565b9050919050565b6000819050919050565b60008160601b9050919050565b610f7a81610f2c565b8114610f8557600080fd5b5056fea26469706673582212200cd81ab7ff455a77c6ba9346d1897f24280c6f1e1d90377c1cb4e87510407deb64736f6c634300060c0033",
  "immutableReferences": {},
  "source": "// SPDX-License-Identifier: MIT\npragma solidity ^0.6.7;\npragma experimental ABIEncoderV2;\n\ncontract Raffle {\n    address public contractAddress; //reference only\n    uint public roundNumber; //the raffle round identifier\n    uint public entryCost; //cost to enter the raffle in wei (have a setter for the admin)\n\n    /*\n    * Winners Record to keep all winners\n    */\n    struct Winner {\n        address winnerAddress;\n        uint256 winnerAmount;\n        uint round;\n    }\n    Winner [] public winnerRegistry; //keep all winners of this lottery\n    \n    /*\n    * Variables for each round\n    */\n    address payable public manager;\n    address payable[] public players;\n    uint256 public prizePool;\n    uint public randomWinnerNumber;\n\n\n    constructor() public {\n        manager = msg.sender;\n        roundNumber = 1;\n        contractAddress = address(this);\n        entryCost = 10000000000000000;\n        prizePool = 0;\n    }\n\n    /**\n     * Restricted to owner only modifier to add to functions\n    */    \n    modifier ownerOnly() {\n        require(msg.sender == manager);\n        _;\n    }\n\n    /**\n    * @notice Enter the raffle\n    */\n    function enter() public payable {\n        //ensure the user is sending enough to enter\n        require(msg.value == entryCost);\n        //user can enter raffle as many times as they like for more chances\n        players.push(msg.sender);\n        //increment the value of the prizepool\n        prizePool = prizePool + (msg.value);\n    }\n\n    /**\n    * @notice Pick a raffle winner\n    */   \n    function pickWinner() public ownerOnly {\n        //first get a random Number\n        randomWinnerNumber = getRandomNumber() % players.length;\n        //create a Winner and add to our winners registry array\n        Winner memory newWinner =  Winner({\n            winnerAddress: players[randomWinnerNumber],\n            winnerAmount: address(this).balance,\n            round: roundNumber\n        });\n        winnerRegistry.push(newWinner);\n        //pay the winner\n        players[randomWinnerNumber].transfer(address(this).balance);\n        //clear the players array & prizePool\n        players = new address payable[](0);\n        prizePool = 0;\n        //increment the round number\n        incrementRoundNumber();\n    }\n\n    /**\n    * @notice pick a random number uses keccak\n    */\n    function getRandomNumber() private view returns (uint) {\n        //randomWinnerNumber = uint(keccak256(abi.encodePacked(now, block.difficulty, msg.sender)));\n        return uint(keccak256(abi.encodePacked(now, block.difficulty, msg.sender)));\n    }\n\n    /**\n    * @notice increments the raffle round number\n    */\n    function incrementRoundNumber() private {\n        roundNumber = roundNumber+1;\n    }\n\n    /**\n    * @notice helper function to display players for frontends\n    */\n    function getPlayers() public view returns (address payable[] memory) {\n        return players;\n    }\n\n    /**\n    * @notice helper function to display winners for frontends\n    */\n    function getWinners() public view returns (Winner [] memory) {\n        return winnerRegistry;\n    }\n\n    /**\n    * @notice manager only functions\n    */\n    function setEntryCost(uint value) public ownerOnly {\n        entryCost = value;\n    }\n\n    //fallback function\n    function manualPickWinner() public ownerOnly {\n        pickWinner();\n    }\n    \n    //testing only function that obviously should never go in the deployed contract (rugpull anyone!?)\n    function rugpullWithdrawEth() public ownerOnly{\n        manager.transfer(address(this).balance);\n    }\n}",
  "sourcePath": "/Users/alisonhaire/Desktop/Blockchain/Chainlink/chainlink-keepers/contracts/Raffle.sol",
  "compiler": {
    "name": "solc",
    "version": "0.6.12+commit.27d51765.Emscripten.clang"
  },
  "schemaVersion": "3.4.1",
  "updatedAt": "2021-07-19T11:15:05.686Z",
  "networkType": "ethereum",
  "devdoc": {
    "kind": "dev",
    "methods": {},
    "version": 1
  },
  "userdoc": {
    "kind": "user",
    "methods": {
      "enter()": {
        "notice": "Enter the raffle"
      },
      "getPlayers()": {
        "notice": "helper function to display players for frontends"
      },
      "getWinners()": {
        "notice": "helper function to display winners for frontends"
      },
      "pickWinner()": {
        "notice": "Pick a raffle winner"
      },
      "setEntryCost(uint256)": {
        "notice": "manager only functions"
      }
    },
    "version": 1
  }
}