{
  "contractName": "RaffleVRFKeeper",
  "abi": [
    {
      "inputs": [],
      "stateMutability": "nonpayable",
      "type": "constructor"
    },
    {
      "inputs": [],
      "name": "contractAddress",
      "outputs": [
        {
          "internalType": "address",
          "name": "",
          "type": "address"
        }
      ],
      "stateMutability": "view",
      "type": "function",
      "constant": true
    },
    {
      "inputs": [],
      "name": "entryCost",
      "outputs": [
        {
          "internalType": "uint256",
          "name": "",
          "type": "uint256"
        }
      ],
      "stateMutability": "view",
      "type": "function",
      "constant": true
    },
    {
      "inputs": [],
      "name": "manager",
      "outputs": [
        {
          "internalType": "address payable",
          "name": "",
          "type": "address"
        }
      ],
      "stateMutability": "view",
      "type": "function",
      "constant": true
    },
    {
      "inputs": [],
      "name": "numberOfPlayersBeforeDraw",
      "outputs": [
        {
          "internalType": "uint256",
          "name": "",
          "type": "uint256"
        }
      ],
      "stateMutability": "view",
      "type": "function",
      "constant": true
    },
    {
      "inputs": [],
      "name": "pickingWinner",
      "outputs": [
        {
          "internalType": "bool",
          "name": "",
          "type": "bool"
        }
      ],
      "stateMutability": "view",
      "type": "function",
      "constant": true
    },
    {
      "inputs": [
        {
          "internalType": "uint256",
          "name": "",
          "type": "uint256"
        }
      ],
      "name": "players",
      "outputs": [
        {
          "internalType": "address payable",
          "name": "",
          "type": "address"
        }
      ],
      "stateMutability": "view",
      "type": "function",
      "constant": true
    },
    {
      "inputs": [],
      "name": "prizePool",
      "outputs": [
        {
          "internalType": "uint256",
          "name": "",
          "type": "uint256"
        }
      ],
      "stateMutability": "view",
      "type": "function",
      "constant": true
    },
    {
      "inputs": [],
      "name": "randomWinnerNumber",
      "outputs": [
        {
          "internalType": "uint256",
          "name": "",
          "type": "uint256"
        }
      ],
      "stateMutability": "view",
      "type": "function",
      "constant": true
    },
    {
      "inputs": [
        {
          "internalType": "bytes32",
          "name": "requestId",
          "type": "bytes32"
        },
        {
          "internalType": "uint256",
          "name": "randomness",
          "type": "uint256"
        }
      ],
      "name": "rawFulfillRandomness",
      "outputs": [],
      "stateMutability": "nonpayable",
      "type": "function"
    },
    {
      "inputs": [],
      "name": "roundNumber",
      "outputs": [
        {
          "internalType": "uint256",
          "name": "",
          "type": "uint256"
        }
      ],
      "stateMutability": "view",
      "type": "function",
      "constant": true
    },
    {
      "inputs": [
        {
          "internalType": "uint256",
          "name": "",
          "type": "uint256"
        }
      ],
      "name": "winnerRegistry",
      "outputs": [
        {
          "internalType": "address",
          "name": "winnerAddress",
          "type": "address"
        },
        {
          "internalType": "uint256",
          "name": "winnerAmount",
          "type": "uint256"
        },
        {
          "internalType": "uint256",
          "name": "round",
          "type": "uint256"
        }
      ],
      "stateMutability": "view",
      "type": "function",
      "constant": true
    },
    {
      "inputs": [],
      "name": "enter",
      "outputs": [],
      "stateMutability": "payable",
      "type": "function",
      "payable": true
    },
    {
      "inputs": [],
      "name": "pickWinner",
      "outputs": [],
      "stateMutability": "nonpayable",
      "type": "function"
    },
    {
      "inputs": [
        {
          "internalType": "bytes",
          "name": "checkData",
          "type": "bytes"
        }
      ],
      "name": "checkUpkeep",
      "outputs": [
        {
          "internalType": "bool",
          "name": "upkeepNeeded",
          "type": "bool"
        },
        {
          "internalType": "bytes",
          "name": "performData",
          "type": "bytes"
        }
      ],
      "stateMutability": "nonpayable",
      "type": "function"
    },
    {
      "inputs": [
        {
          "internalType": "bytes",
          "name": "performData",
          "type": "bytes"
        }
      ],
      "name": "performUpkeep",
      "outputs": [],
      "stateMutability": "nonpayable",
      "type": "function"
    },
    {
      "inputs": [],
      "name": "getRandomNumber",
      "outputs": [
        {
          "internalType": "bytes32",
          "name": "requestId",
          "type": "bytes32"
        }
      ],
      "stateMutability": "nonpayable",
      "type": "function"
    },
    {
      "inputs": [],
      "name": "getPlayers",
      "outputs": [
        {
          "internalType": "address payable[]",
          "name": "",
          "type": "address[]"
        }
      ],
      "stateMutability": "view",
      "type": "function",
      "constant": true
    },
    {
      "inputs": [],
      "name": "getWinners",
      "outputs": [
        {
          "components": [
            {
              "internalType": "address",
              "name": "winnerAddress",
              "type": "address"
            },
            {
              "internalType": "uint256",
              "name": "winnerAmount",
              "type": "uint256"
            },
            {
              "internalType": "uint256",
              "name": "round",
              "type": "uint256"
            }
          ],
          "internalType": "struct RaffleVRFKeeper.Winner[]",
          "name": "",
          "type": "tuple[]"
        }
      ],
      "stateMutability": "view",
      "type": "function",
      "constant": true
    },
    {
      "inputs": [
        {
          "internalType": "uint256",
          "name": "value",
          "type": "uint256"
        }
      ],
      "name": "setEntryCost",
      "outputs": [],
      "stateMutability": "nonpayable",
      "type": "function"
    },
    {
      "inputs": [
        {
          "internalType": "uint256",
          "name": "numPlayers",
          "type": "uint256"
        }
      ],
      "name": "setNumberOfPlayersBeforeDraw",
      "outputs": [],
      "stateMutability": "nonpayable",
      "type": "function"
    },
    {
      "inputs": [],
      "name": "rugpullWithdrawEth",
      "outputs": [],
      "stateMutability": "nonpayable",
      "type": "function"
    },
    {
      "inputs": [],
      "name": "withdrawLink",
      "outputs": [],
      "stateMutability": "nonpayable",
      "type": "function"
    }
  ],
  "bytecode": "0x60c06040527f6c3699283bda56ad74f6b855546325b68d482e983852a7a82979cc4807b641f460001b60095567016345785d8a0000600a5573a36085f69e2889c224210f603d836748e7dc0088600b60006101000a81548173ffffffffffffffffffffffffffffffffffffffff021916908373ffffffffffffffffffffffffffffffffffffffff16021790555073dd3782915140c8f3b190b5d67eac6dc5760c46e9600c60006101000a81548173ffffffffffffffffffffffffffffffffffffffff021916908373ffffffffffffffffffffffffffffffffffffffff1602179055506000600e60006101000a81548160ff02191690831515021790555034801561010857600080fd5b50600c60009054906101000a900473ffffffffffffffffffffffffffffffffffffffff16600b60009054906101000a900473ffffffffffffffffffffffffffffffffffffffff168173ffffffffffffffffffffffffffffffffffffffff1660a08173ffffffffffffffffffffffffffffffffffffffff1660601b815250508073ffffffffffffffffffffffffffffffffffffffff1660808173ffffffffffffffffffffffffffffffffffffffff1660601b81525050505033600260006101000a81548173ffffffffffffffffffffffffffffffffffffffff021916908373ffffffffffffffffffffffffffffffffffffffff160217905550600160038190555030600160006101000a81548173ffffffffffffffffffffffffffffffffffffffff021916908373ffffffffffffffffffffffffffffffffffffffff160217905550662386f26fc100006004819055506000600781905550600360088190555060805160601c60a05160601c611d276102a4600039806109c95280610e0852508061084f52806108ae5280610ad45280610dcc5250611d276000f3fe6080604052600436106101355760003560e01c80638ac14297116100ab578063ae42ced61161006f578063ae42ced6146103cd578063dbdff2c1146103f8578063df15c37e14610423578063e97dcb621461044e578063f6b4dfb414610458578063f71d96cb1461048357610135565b80638ac142971461030e5780638b5b9ccc146103395780638dc654a21461036457806394985ddd1461037b578063ae29f7f9146103a457610135565b8063481c6a75116100fd578063481c6a75146101f95780634e2786fb146102245780635d495aea1461024f5780636e04ff0d14610266578063719ce73e146102a45780637dd9c4ae146102cf57610135565b80631eff7d9f1461013a5780633800a316146101655780633aaebe681461018e57806341fa2042146101a55780634585e33b146101d0575b600080fd5b34801561014657600080fd5b5061014f6104c0565b60405161015c9190611b00565b60405180910390f35b34801561017157600080fd5b5061018c600480360381019061018791906114d4565b6104c6565b005b34801561019a57600080fd5b506101a361052a565b005b3480156101b157600080fd5b506101ba610606565b6040516101c791906119ac565b60405180910390f35b3480156101dc57600080fd5b506101f760048036038101906101f2919061148f565b610619565b005b34801561020557600080fd5b5061020e610625565b60405161021b91906118af565b60405180910390f35b34801561023057600080fd5b5061023961064b565b6040516102469190611b00565b60405180910390f35b34801561025b57600080fd5b50610264610651565b005b34801561027257600080fd5b5061028d6004803603810190610288919061148f565b61068a565b60405161029b9291906119c7565b60405180910390f35b3480156102b057600080fd5b506102b9610702565b6040516102c69190611b00565b60405180910390f35b3480156102db57600080fd5b506102f660048036038101906102f191906114d4565b610708565b60405161030593929190611931565b60405180910390f35b34801561031a57600080fd5b5061032361075f565b6040516103309190611b00565b60405180910390f35b34801561034557600080fd5b5061034e610765565b60405161035b9190611968565b60405180910390f35b34801561037057600080fd5b506103796107f3565b005b34801561038757600080fd5b506103a2600480360381019061039d9190611453565b6109c7565b005b3480156103b057600080fd5b506103cb60048036038101906103c691906114d4565b610a63565b005b3480156103d957600080fd5b506103e2610ac7565b6040516103ef9190611b00565b60405180910390f35b34801561040457600080fd5b5061040d610acd565b60405161041a91906119f7565b60405180910390f35b34801561042f57600080fd5b50610438610bcf565b604051610445919061198a565b60405180910390f35b610456610c98565b005b34801561046457600080fd5b5061046d610d29565b60405161047a9190611894565b60405180910390f35b34801561048f57600080fd5b506104aa60048036038101906104a591906114d4565b610d4f565b6040516104b791906118af565b60405180910390f35b600d5481565b600260009054906101000a900473ffffffffffffffffffffffffffffffffffffffff1673ffffffffffffffffffffffffffffffffffffffff163373ffffffffffffffffffffffffffffffffffffffff161461052057600080fd5b8060088190555050565b600260009054906101000a900473ffffffffffffffffffffffffffffffffffffffff1673ffffffffffffffffffffffffffffffffffffffff163373ffffffffffffffffffffffffffffffffffffffff161461058457600080fd5b600260009054906101000a900473ffffffffffffffffffffffffffffffffffffffff1673ffffffffffffffffffffffffffffffffffffffff166108fc3073ffffffffffffffffffffffffffffffffffffffff16319081150290604051600060405180830381858888f19350505050158015610603573d6000803e3d6000fd5b50565b600e60009054906101000a900460ff1681565b610621610651565b5050565b600260009054906101000a900473ffffffffffffffffffffffffffffffffffffffff1681565b60035481565b6008546006805490501461066457600080fd5b6001600e60006101000a81548160ff021916908315150217905550610687610acd565b50565b60006060600854600680549050101580156106b25750600e60009054906101000a900460ff16155b915083838080601f016020809104026020016040519081016040528093929190818152602001838380828437600081840152601f19601f8201169050808301925050505050505090509250929050565b60075481565b6005818154811061071557fe5b90600052602060002090600302016000915090508060000160009054906101000a900473ffffffffffffffffffffffffffffffffffffffff16908060010154908060020154905083565b60085481565b606060068054806020026020016040519081016040528092919081815260200182805480156107e957602002820191906000526020600020905b8160009054906101000a900473ffffffffffffffffffffffffffffffffffffffff1673ffffffffffffffffffffffffffffffffffffffff168152602001906001019080831161079f575b5050505050905090565b600260009054906101000a900473ffffffffffffffffffffffffffffffffffffffff1673ffffffffffffffffffffffffffffffffffffffff163373ffffffffffffffffffffffffffffffffffffffff161461084d57600080fd5b7f000000000000000000000000000000000000000000000000000000000000000073ffffffffffffffffffffffffffffffffffffffff1663a9059cbb600260009054906101000a900473ffffffffffffffffffffffffffffffffffffffff167f000000000000000000000000000000000000000000000000000000000000000073ffffffffffffffffffffffffffffffffffffffff166370a08231306040518263ffffffff1660e01b81526004016109059190611894565b60206040518083038186803b15801561091d57600080fd5b505afa158015610931573d6000803e3d6000fd5b505050506040513d601f19601f8201168201806040525081019061095591906114fd565b6040518363ffffffff1660e01b81526004016109729291906118ca565b602060405180830381600087803b15801561098c57600080fd5b505af11580156109a0573d6000803e3d6000fd5b505050506040513d601f19601f820116820180604052508101906109c4919061142a565b50565b7f000000000000000000000000000000000000000000000000000000000000000073ffffffffffffffffffffffffffffffffffffffff163373ffffffffffffffffffffffffffffffffffffffff1614610a55576040517f08c379a0000000000000000000000000000000000000000000000000000000008152600401610a4c90611ae0565b60405180910390fd5b610a5f8282610d8b565b5050565b600260009054906101000a900473ffffffffffffffffffffffffffffffffffffffff1673ffffffffffffffffffffffffffffffffffffffff163373ffffffffffffffffffffffffffffffffffffffff1614610abd57600080fd5b8060048190555050565b60045481565b6000600a547f000000000000000000000000000000000000000000000000000000000000000073ffffffffffffffffffffffffffffffffffffffff166370a08231306040518263ffffffff1660e01b8152600401610b2b9190611894565b60206040518083038186803b158015610b4357600080fd5b505afa158015610b57573d6000803e3d6000fd5b505050506040513d601f19601f82011682018060405250810190610b7b91906114fd565b1015610bbc576040517f08c379a0000000000000000000000000000000000000000000000000000000008152600401610bb390611aa0565b60405180910390fd5b610bca600954600a54610dc8565b905090565b60606005805480602002602001604051908101604052809291908181526020016000905b82821015610c8f57838290600052602060002090600302016040518060600160405290816000820160009054906101000a900473ffffffffffffffffffffffffffffffffffffffff1673ffffffffffffffffffffffffffffffffffffffff1673ffffffffffffffffffffffffffffffffffffffff1681526020016001820154815260200160028201548152505081526020019060010190610bf3565b50505050905090565b6004543414610ca657600080fd5b60085460068054905010610cb957600080fd5b6006339080600181540180825580915050600190039060005260206000200160009091909190916101000a81548173ffffffffffffffffffffffffffffffffffffffff021916908373ffffffffffffffffffffffffffffffffffffffff1602179055503460075401600781905550565b600160009054906101000a900473ffffffffffffffffffffffffffffffffffffffff1681565b60068181548110610d5c57fe5b906000526020600020016000915054906101000a900473ffffffffffffffffffffffffffffffffffffffff1681565b610db66001610da860068054905084610f2e90919063ffffffff16565b610f8590919063ffffffff16565b600d81905550610dc4610fda565b5050565b60007f000000000000000000000000000000000000000000000000000000000000000073ffffffffffffffffffffffffffffffffffffffff16634000aea07f000000000000000000000000000000000000000000000000000000000000000084866000604051602001610e3c929190611a12565b6040516020818303038152906040526040518463ffffffff1660e01b8152600401610e69939291906118f3565b602060405180830381600087803b158015610e8357600080fd5b505af1158015610e97573d6000803e3d6000fd5b505050506040513d601f19601f82011682018060405250810190610ebb919061142a565b506000610edd8460003060008089815260200190815260200160002054611213565b9050610f05600160008087815260200190815260200160002054610f8590919063ffffffff16565b60008086815260200190815260200160002081905550610f25848261124f565b91505092915050565b600080821415610f73576040517f08c379a0000000000000000000000000000000000000000000000000000000008152600401610f6a90611ac0565b60405180910390fd5b818381610f7c57fe5b06905092915050565b600080828401905083811015610fd0576040517f08c379a0000000000000000000000000000000000000000000000000000000008152600401610fc790611a80565b60405180910390fd5b8091505092915050565b610fe2611290565b60405180606001604052806006600d5481548110610ffc57fe5b9060005260206000200160009054906101000a900473ffffffffffffffffffffffffffffffffffffffff1673ffffffffffffffffffffffffffffffffffffffff1681526020013073ffffffffffffffffffffffffffffffffffffffff163181526020016003548152509050600581908060018154018082558091505060019003906000526020600020906003020160009091909190915060008201518160000160006101000a81548173ffffffffffffffffffffffffffffffffffffffff021916908373ffffffffffffffffffffffffffffffffffffffff160217905550602082015181600101556040820151816002015550506006600d54815481106110ff57fe5b9060005260206000200160009054906101000a900473ffffffffffffffffffffffffffffffffffffffff1673ffffffffffffffffffffffffffffffffffffffff166108fc3073ffffffffffffffffffffffffffffffffffffffff16319081150290604051600060405180830381858888f19350505050158015611186573d6000803e3d6000fd5b50600067ffffffffffffffff8111801561119f57600080fd5b506040519080825280602002602001820160405280156111ce5781602001602082028036833780820191505090505b50600690805190602001906111e49291906112c7565b506000600e60006101000a81548160ff0219169083151502179055506000600781905550611210611282565b50565b60008484848460405160200161122c9493929190611a3b565b6040516020818303038152906040528051906020012060001c9050949350505050565b60008282604051602001611264929190611868565b60405160208183030381529060405280519060200120905092915050565b600160035401600381905550565b6040518060600160405280600073ffffffffffffffffffffffffffffffffffffffff16815260200160008152602001600081525090565b828054828255906000526020600020908101928215611340579160200282015b8281111561133f5782518260006101000a81548173ffffffffffffffffffffffffffffffffffffffff021916908373ffffffffffffffffffffffffffffffffffffffff160217905550916020019190600101906112e7565b5b50905061134d9190611351565b5090565b5b8082111561138857600081816101000a81549073ffffffffffffffffffffffffffffffffffffffff021916905550600101611352565b5090565b60008151905061139b81611cac565b92915050565b6000813590506113b081611cc3565b92915050565b60008083601f8401126113c857600080fd5b8235905067ffffffffffffffff8111156113e157600080fd5b6020830191508360018202830111156113f957600080fd5b9250929050565b60008135905061140f81611cda565b92915050565b60008151905061142481611cda565b92915050565b60006020828403121561143c57600080fd5b600061144a8482850161138c565b91505092915050565b6000806040838503121561146657600080fd5b6000611474858286016113a1565b925050602061148585828601611400565b9150509250929050565b600080602083850312156114a257600080fd5b600083013567ffffffffffffffff8111156114bc57600080fd5b6114c8858286016113b6565b92509250509250929050565b6000602082840312156114e657600080fd5b60006114f484828501611400565b91505092915050565b60006020828403121561150f57600080fd5b600061151d84828501611415565b91505092915050565b60006115328383611565565b60208301905092915050565b600061154a83836117f1565b60608301905092915050565b61155f81611c1e565b82525050565b61156e81611bcc565b82525050565b61157d81611bcc565b82525050565b61158c81611bba565b82525050565b61159b81611bba565b82525050565b60006115ac82611b3b565b6115b68185611b76565b93506115c183611b1b565b8060005b838110156115f25781516115d98882611526565b97506115e483611b5c565b9250506001810190506115c5565b5085935050505092915050565b600061160a82611b46565b6116148185611b87565b935061161f83611b2b565b8060005b83811015611650578151611637888261153e565b975061164283611b69565b925050600181019050611623565b5085935050505092915050565b61166681611bde565b82525050565b61167581611bea565b82525050565b61168c61168782611bea565b611c87565b82525050565b600061169d82611b51565b6116a78185611b98565b93506116b7818560208601611c54565b6116c081611c9b565b840191505092915050565b60006116d8601b83611ba9565b91507f536166654d6174683a206164646974696f6e206f766572666c6f7700000000006000830152602082019050919050565b6000611718602b83611ba9565b91507f4e6f7420656e6f756768204c494e4b202d2066696c6c20636f6e74726163742060008301527f77697468206661756365740000000000000000000000000000000000000000006020830152604082019050919050565b600061177e601883611ba9565b91507f536166654d6174683a206d6f64756c6f206279207a65726f00000000000000006000830152602082019050919050565b60006117be601f83611ba9565b91507f4f6e6c7920565246436f6f7264696e61746f722063616e2066756c66696c6c006000830152602082019050919050565b6060820160008201516118076000850182611583565b50602082015161181a6020850182611833565b50604082015161182d6040850182611833565b50505050565b61183c81611c14565b82525050565b61184b81611c14565b82525050565b61186261185d82611c14565b611c91565b82525050565b6000611874828561167b565b6020820191506118848284611851565b6020820191508190509392505050565b60006020820190506118a96000830184611592565b92915050565b60006020820190506118c46000830184611574565b92915050565b60006040820190506118df6000830185611556565b6118ec6020830184611842565b9392505050565b60006060820190506119086000830186611592565b6119156020830185611842565b81810360408301526119278184611692565b9050949350505050565b60006060820190506119466000830186611592565b6119536020830185611842565b6119606040830184611842565b949350505050565b6000602082019050818103600083015261198281846115a1565b905092915050565b600060208201905081810360008301526119a481846115ff565b905092915050565b60006020820190506119c1600083018461165d565b92915050565b60006040820190506119dc600083018561165d565b81810360208301526119ee8184611692565b90509392505050565b6000602082019050611a0c600083018461166c565b92915050565b6000604082019050611a27600083018561166c565b611a346020830184611842565b9392505050565b6000608082019050611a50600083018761166c565b611a5d6020830186611842565b611a6a6040830185611592565b611a776060830184611842565b95945050505050565b60006020820190508181036000830152611a99816116cb565b9050919050565b60006020820190508181036000830152611ab98161170b565b9050919050565b60006020820190508181036000830152611ad981611771565b9050919050565b60006020820190508181036000830152611af9816117b1565b9050919050565b6000602082019050611b156000830184611842565b92915050565b6000819050602082019050919050565b6000819050602082019050919050565b600081519050919050565b600081519050919050565b600081519050919050565b6000602082019050919050565b6000602082019050919050565b600082825260208201905092915050565b600082825260208201905092915050565b600082825260208201905092915050565b600082825260208201905092915050565b6000611bc582611bf4565b9050919050565b6000611bd782611bf4565b9050919050565b60008115159050919050565b6000819050919050565b600073ffffffffffffffffffffffffffffffffffffffff82169050919050565b6000819050919050565b6000611c2982611c30565b9050919050565b6000611c3b82611c42565b9050919050565b6000611c4d82611bf4565b9050919050565b60005b83811015611c72578082015181840152602081019050611c57565b83811115611c81576000848401525b50505050565b6000819050919050565b6000819050919050565b6000601f19601f8301169050919050565b611cb581611bde565b8114611cc057600080fd5b50565b611ccc81611bea565b8114611cd757600080fd5b50565b611ce381611c14565b8114611cee57600080fd5b5056fea2646970667358221220a253feefb51e9f179e9a3de91ff6d0d0f9a5a0acbca3b0accfd885f905ebe12f64736f6c634300060c0033",
  "immutableReferences": {
    "77": [
      {
        "length": 32,
        "start": 2127
      },
      {
        "length": 32,
        "start": 2222
      },
      {
        "length": 32,
        "start": 2772
      },
      {
        "length": 32,
        "start": 3532
      }
    ],
    "79": [
      {
        "length": 32,
        "start": 2505
      },
      {
        "length": 32,
        "start": 3592
      }
    ]
  },
  "source": "// SPDX-License-Identifier: MIT\npragma solidity ^0.6.7;\npragma experimental ABIEncoderV2;\nimport \"@chainlink/contracts/src/v0.6/VRFConsumerBase.sol\";\nimport \"@chainlink/contracts/src/v0.6/interfaces/AggregatorV3Interface.sol\";\n\n/*\n* The interface for Chainlink Keepers - see docs: https://docs.chain.link/docs/chainlink-keepers/introduction/\n*/\ninterface KeeperCompatibleInterface {\n    function checkUpkeep(bytes calldata checkData) external returns (bool upkeepNeeded, bytes memory performData);\n    function performUpkeep(bytes calldata performData) external;\n}\n\n/*\n* This contract uses Chainlink VRF to pick a random winner for a raffle then uses Chainlink Keepers to automatically trigger \n* the function that picks a winner when the number of players entered requirement is met.\n* This contract runs in Remix with Kovan Network selected in wallet. Requires registering of a keeper (https://keeper.chain.link/) \n* and sending LINK to the contract address (for VRF)\n*/\ncontract RaffleVRFKeeper is VRFConsumerBase, KeeperCompatibleInterface {\n    address public contractAddress; //reference only\n    address payable public manager; //contract owner\n    uint public roundNumber; //the raffle round identifier\n    uint public entryCost; //cost to enter the raffle in wei (have a setter for the admin)\n\n    /*\n    * Winners Record to keep all winners\n    */\n    struct Winner {\n        address winnerAddress;\n        uint256 winnerAmount;\n        uint round;\n    }\n    Winner [] public winnerRegistry; //keep all winners of this lottery\n    \n    /*\n    * Variables for each round\n    */\n    address payable[] public players;\n    uint256 public prizePool;\n    uint public numberOfPlayersBeforeDraw; /* ADDED */\n    \n    /*\n    /*\n    * VRF Variables\n    */\n    bytes32 internal keyHash = 0x6c3699283bda56ad74f6b855546325b68d482e983852a7a82979cc4807b641f4;\n    uint256 internal fee = 0.1 * 10 ** 18;\n    address private LinkToken = 0xa36085F69e2889c224210F603D836748e7dC0088;\n    address private VRFCoordinator = 0xdD3782915140c8f3b190B5D67eAc6dc5760C46E9;\n    uint public randomWinnerNumber; //the index of the winning player in players array\n\n    /*\n    * Variables for Chainlink Keeper upkeep function\n    */\n    bool public pickingWinner = false;\n    \n    \n    /*\n    * Constructor gives Chainlink VRF (for verifiable random number generation) function the kovan network Variables required - change as needed\n    */\n    constructor() public VRFConsumerBase(VRFCoordinator, LinkToken) {\n        manager = msg.sender;\n        roundNumber = 1;\n        contractAddress = address(this);\n        entryCost = 10000000000000000;\n        prizePool = 0; //set prizePool initial value\n\n        numberOfPlayersBeforeDraw = 3; //we'll use this to trigger the keeper function to draw the lottery\n    }\n    \n    /**\n     * Restricted to owner only modifier to add to functions\n    */    \n    modifier ownerOnly() {\n        require(msg.sender == manager);\n        _;\n    }\n\n    /**\n    * @notice Enter the raffle\n    */\n    function enter() public payable {\n        //ensure the user is sending enough to enter\n        require(msg.value == entryCost);\n        require(players.length < numberOfPlayersBeforeDraw); /* ADDED */\n        //user can enter raffle as many times as they like for more chances\n        players.push(msg.sender);\n        //increment the value of the prizepool\n        prizePool = prizePool + (msg.value);\n    }\n\n    /**\n    * @notice Pick a raffle winner NO LONGER NEEDED - \n    * though we'll keep this as a manual override in case of failure\n    */   \n    function pickWinner() public {\n        //because we're making this public lets put some require statements in for some security\n        require(players.length == numberOfPlayersBeforeDraw);\n        pickingWinner = true;   //so our upkeep does not fire more than once while waiting for our randomnumber \n        \n        //because fulfilling a random number takes some time, we are going to move the\n        //actions for paying the winner and then resetting the raffle to another function which\n        //will be called from the fulfillRandomness function so that we know we have a random winner\n        getRandomNumber();\n    }\n\n    // /**\n    // * @notice pick a random number uses keccak - changed to Chainlink VRF\n    // */\n    // function getRandomNumber() private view returns (uint) {\n    //     //randomWinnerNumber = uint(keccak256(abi.encodePacked(now, block.difficulty, msg.sender)));\n    //     return uint(keccak256(abi.encodePacked(now, block.difficulty, msg.sender)));\n    // }\n\n\n    /**\n    Chainlink Keeper Function that checks if conditions have been met to perform the next action\n     */\n    function checkUpkeep(bytes calldata checkData) external override returns (bool upkeepNeeded, bytes memory performData) {\n        upkeepNeeded = players.length >= numberOfPlayersBeforeDraw && !pickingWinner; //check for randomNumber here as well\n\n        // We don't use the checkData in this example\n        // checkData was defined when the Upkeep was registered\n        performData = checkData;\n    }\n\n    function performUpkeep(bytes calldata performData) external override {\n        pickWinner();\n\n        // We don't use the performData in this example\n        // performData is generated by the Keeper's call to your `checkUpkeep` function\n        performData;\n    }\n\n    /** \n     * Requests randomness \n     * Returns a hash essentially (requestId)\n     */\n    function getRandomNumber() public returns (bytes32 requestId) {\n        require(LINK.balanceOf(address(this)) >= fee, \"Not enough LINK - fill contract with faucet\");\n        requestId = requestRandomness(keyHash, fee);\n    }\n\n    /**\n     * Callback function used by VRF Coordinator - sets the randomNumber used to decide the winner\n     */\n    function fulfillRandomness(bytes32 requestId, uint256 randomness) internal override {\n        randomWinnerNumber = randomness.mod(players.length).add(1);\n        //Once the random number is fulfilled we will deal with paying the winner\n        endRaffleRound();\n    }\n\n    function endRaffleRound() private {\n         Winner memory newWinner =  Winner({\n            winnerAddress: players[randomWinnerNumber],\n            winnerAmount: address(this).balance,\n            round: roundNumber\n        });\n        winnerRegistry.push(newWinner);\n        //pay the winner\n        players[randomWinnerNumber].transfer(address(this).balance);\n        //clear the players array & prizePool\n        players = new address payable[](0);\n        pickingWinner = false;\n        prizePool = 0;\n        //increment the round number\n        incrementRoundNumber();\n    }\n\n    /**\n    * @notice increments the raffle round number\n    */\n    function incrementRoundNumber() private {\n        roundNumber = roundNumber+1;\n    }\n\n   /**\n    * @notice helper function to display players for frontends\n    */\n    function getPlayers() public view returns (address payable[] memory) {\n        return players;\n    }\n\n    /**\n    * @notice helper function to display winners for frontends\n    */\n    function getWinners() public view returns (Winner [] memory) {\n        return winnerRegistry;\n    }\n\n    /**\n    * @notice manager only functions\n    */\n    function setEntryCost(uint value) public ownerOnly {\n        entryCost = value;\n    }\n    \n    /**\n     * @notice set number of players that can enter before draw ends\n    */\n    function setNumberOfPlayersBeforeDraw(uint numPlayers) public ownerOnly {\n        numberOfPlayersBeforeDraw = numPlayers;\n    }\n    \n    //testing only function that obviously should never go in the deployed contract (rugpull anyone!?)\n    function rugpullWithdrawEth() public ownerOnly{\n        manager.transfer(address(this).balance);\n    }\n    \n    /*\n     * @notice Withdraw LINK from this contract.\n     * @dev this is an example only, and in a real contract withdrawals should\n     * happen according to the established withdrawal pattern: \n     * https://docs.soliditylang.org/en/v0.4.24/common-patterns.html#withdrawal-from-contracts\n     */\n    function withdrawLink() public ownerOnly{\n        LINK.transfer(manager, LINK.balanceOf(address(this)));\n    }\n\n}   ",
  "sourcePath": "/Users/alisonhaire/Desktop/Blockchain/Chainlink/chainlink-keepers/contracts/RaffleVRFKeeper.sol",
  "compiler": {
    "name": "solc",
    "version": "0.6.12+commit.27d51765.Emscripten.clang"
  },
  "schemaVersion": "3.4.1",
  "updatedAt": "2021-07-19T11:15:05.695Z",
  "networkType": "ethereum",
  "devdoc": {
    "kind": "dev",
    "methods": {},
    "version": 1
  },
  "userdoc": {
    "kind": "user",
    "methods": {
      "checkUpkeep(bytes)": {
        "notice": "Chainlink Keeper Function that checks if conditions have been met to perform the next action"
      },
      "enter()": {
        "notice": "Enter the raffle"
      },
      "getPlayers()": {
        "notice": "helper function to display players for frontends"
      },
      "getRandomNumber()": {
        "notice": "Requests randomness  Returns a hash essentially (requestId)"
      },
      "getWinners()": {
        "notice": "helper function to display winners for frontends"
      },
      "pickWinner()": {
        "notice": "Pick a raffle winner NO LONGER NEEDED -  though we'll keep this as a manual override in case of failure"
      },
      "setEntryCost(uint256)": {
        "notice": "manager only functions"
      },
      "setNumberOfPlayersBeforeDraw(uint256)": {
        "notice": "set number of players that can enter before draw ends"
      }
    },
    "version": 1
  }
}