{
  "contractName": "RaffleVRF",
  "abi": [
    {
      "inputs": [],
      "stateMutability": "nonpayable",
      "type": "constructor"
    },
    {
      "inputs": [],
      "name": "contractAddress",
      "outputs": [
        {
          "internalType": "address",
          "name": "",
          "type": "address"
        }
      ],
      "stateMutability": "view",
      "type": "function",
      "constant": true
    },
    {
      "inputs": [],
      "name": "entryCost",
      "outputs": [
        {
          "internalType": "uint256",
          "name": "",
          "type": "uint256"
        }
      ],
      "stateMutability": "view",
      "type": "function",
      "constant": true
    },
    {
      "inputs": [],
      "name": "manager",
      "outputs": [
        {
          "internalType": "address payable",
          "name": "",
          "type": "address"
        }
      ],
      "stateMutability": "view",
      "type": "function",
      "constant": true
    },
    {
      "inputs": [
        {
          "internalType": "uint256",
          "name": "",
          "type": "uint256"
        }
      ],
      "name": "players",
      "outputs": [
        {
          "internalType": "address payable",
          "name": "",
          "type": "address"
        }
      ],
      "stateMutability": "view",
      "type": "function",
      "constant": true
    },
    {
      "inputs": [],
      "name": "prizePool",
      "outputs": [
        {
          "internalType": "uint256",
          "name": "",
          "type": "uint256"
        }
      ],
      "stateMutability": "view",
      "type": "function",
      "constant": true
    },
    {
      "inputs": [],
      "name": "randomWinnerNumber",
      "outputs": [
        {
          "internalType": "uint256",
          "name": "",
          "type": "uint256"
        }
      ],
      "stateMutability": "view",
      "type": "function",
      "constant": true
    },
    {
      "inputs": [
        {
          "internalType": "bytes32",
          "name": "requestId",
          "type": "bytes32"
        },
        {
          "internalType": "uint256",
          "name": "randomness",
          "type": "uint256"
        }
      ],
      "name": "rawFulfillRandomness",
      "outputs": [],
      "stateMutability": "nonpayable",
      "type": "function"
    },
    {
      "inputs": [],
      "name": "roundNumber",
      "outputs": [
        {
          "internalType": "uint256",
          "name": "",
          "type": "uint256"
        }
      ],
      "stateMutability": "view",
      "type": "function",
      "constant": true
    },
    {
      "inputs": [
        {
          "internalType": "uint256",
          "name": "",
          "type": "uint256"
        }
      ],
      "name": "winnerRegistry",
      "outputs": [
        {
          "internalType": "address",
          "name": "winnerAddress",
          "type": "address"
        },
        {
          "internalType": "uint256",
          "name": "winnerAmount",
          "type": "uint256"
        },
        {
          "internalType": "uint256",
          "name": "round",
          "type": "uint256"
        }
      ],
      "stateMutability": "view",
      "type": "function",
      "constant": true
    },
    {
      "inputs": [],
      "name": "enter",
      "outputs": [],
      "stateMutability": "payable",
      "type": "function",
      "payable": true
    },
    {
      "inputs": [],
      "name": "pickWinner",
      "outputs": [],
      "stateMutability": "nonpayable",
      "type": "function"
    },
    {
      "inputs": [],
      "name": "getRandomNumber",
      "outputs": [
        {
          "internalType": "bytes32",
          "name": "requestId",
          "type": "bytes32"
        }
      ],
      "stateMutability": "nonpayable",
      "type": "function"
    },
    {
      "inputs": [],
      "name": "getPlayers",
      "outputs": [
        {
          "internalType": "address payable[]",
          "name": "",
          "type": "address[]"
        }
      ],
      "stateMutability": "view",
      "type": "function",
      "constant": true
    },
    {
      "inputs": [],
      "name": "getWinners",
      "outputs": [
        {
          "components": [
            {
              "internalType": "address",
              "name": "winnerAddress",
              "type": "address"
            },
            {
              "internalType": "uint256",
              "name": "winnerAmount",
              "type": "uint256"
            },
            {
              "internalType": "uint256",
              "name": "round",
              "type": "uint256"
            }
          ],
          "internalType": "struct RaffleVRF.Winner[]",
          "name": "",
          "type": "tuple[]"
        }
      ],
      "stateMutability": "view",
      "type": "function",
      "constant": true
    },
    {
      "inputs": [
        {
          "internalType": "uint256",
          "name": "value",
          "type": "uint256"
        }
      ],
      "name": "setEntryCost",
      "outputs": [],
      "stateMutability": "nonpayable",
      "type": "function"
    },
    {
      "inputs": [],
      "name": "rugpullWithdrawEth",
      "outputs": [],
      "stateMutability": "nonpayable",
      "type": "function"
    },
    {
      "inputs": [],
      "name": "withdrawLink",
      "outputs": [],
      "stateMutability": "nonpayable",
      "type": "function"
    }
  ],
  "bytecode": "0x60c06040527f6c3699283bda56ad74f6b855546325b68d482e983852a7a82979cc4807b641f460001b60085567016345785d8a000060095573a36085f69e2889c224210f603d836748e7dc0088600a60006101000a81548173ffffffffffffffffffffffffffffffffffffffff021916908373ffffffffffffffffffffffffffffffffffffffff16021790555073dd3782915140c8f3b190b5d67eac6dc5760c46e9600b60006101000a81548173ffffffffffffffffffffffffffffffffffffffff021916908373ffffffffffffffffffffffffffffffffffffffff1602179055503480156100ed57600080fd5b50600b60009054906101000a900473ffffffffffffffffffffffffffffffffffffffff16600a60009054906101000a900473ffffffffffffffffffffffffffffffffffffffff168173ffffffffffffffffffffffffffffffffffffffff1660a08173ffffffffffffffffffffffffffffffffffffffff1660601b815250508073ffffffffffffffffffffffffffffffffffffffff1660808173ffffffffffffffffffffffffffffffffffffffff1660601b81525050505033600260006101000a81548173ffffffffffffffffffffffffffffffffffffffff021916908373ffffffffffffffffffffffffffffffffffffffff160217905550600160038190555030600160006101000a81548173ffffffffffffffffffffffffffffffffffffffff021916908373ffffffffffffffffffffffffffffffffffffffff160217905550662386f26fc10000600481905550600060078190555060805160601c60a05160601c611a1e610281600039806107d75280610c0352508061065d52806106bc52806108e25280610bc75250611a1e6000f3fe6080604052600436106100fe5760003560e01c80638dc654a211610095578063dbdff2c111610064578063dbdff2c1146102db578063df15c37e14610306578063e97dcb6214610331578063f6b4dfb41461033b578063f71d96cb14610366576100fe565b80638dc654a21461024757806394985ddd1461025e578063ae29f7f914610287578063ae42ced6146102b0576100fe565b80635d495aea116100d15780635d495aea1461019b578063719ce73e146101b25780637dd9c4ae146101dd5780638b5b9ccc1461021c576100fe565b80631eff7d9f146101035780633aaebe681461012e578063481c6a75146101455780634e2786fb14610170575b600080fd5b34801561010f57600080fd5b506101186103a3565b60405161012591906117f7565b60405180910390f35b34801561013a57600080fd5b506101436103a9565b005b34801561015157600080fd5b5061015a610485565b60405161016791906115f1565b60405180910390f35b34801561017c57600080fd5b506101856104ab565b60405161019291906117f7565b60405180910390f35b3480156101a757600080fd5b506101b06104b1565b005b3480156101be57600080fd5b506101c7610516565b6040516101d491906117f7565b60405180910390f35b3480156101e957600080fd5b5061020460048036038101906101ff9190611225565b61051c565b60405161021393929190611673565b60405180910390f35b34801561022857600080fd5b50610231610573565b60405161023e91906116aa565b60405180910390f35b34801561025357600080fd5b5061025c610601565b005b34801561026a57600080fd5b50610285600480360381019061028091906111e9565b6107d5565b005b34801561029357600080fd5b506102ae60048036038101906102a99190611225565b610871565b005b3480156102bc57600080fd5b506102c56108d5565b6040516102d291906117f7565b60405180910390f35b3480156102e757600080fd5b506102f06108db565b6040516102fd91906116ee565b60405180910390f35b34801561031257600080fd5b5061031b6109dd565b60405161032891906116cc565b60405180910390f35b610339610aa6565b005b34801561034757600080fd5b50610350610b24565b60405161035d91906115d6565b60405180910390f35b34801561037257600080fd5b5061038d60048036038101906103889190611225565b610b4a565b60405161039a91906115f1565b60405180910390f35b600c5481565b600260009054906101000a900473ffffffffffffffffffffffffffffffffffffffff1673ffffffffffffffffffffffffffffffffffffffff163373ffffffffffffffffffffffffffffffffffffffff161461040357600080fd5b600260009054906101000a900473ffffffffffffffffffffffffffffffffffffffff1673ffffffffffffffffffffffffffffffffffffffff166108fc3073ffffffffffffffffffffffffffffffffffffffff16319081150290604051600060405180830381858888f19350505050158015610482573d6000803e3d6000fd5b50565b600260009054906101000a900473ffffffffffffffffffffffffffffffffffffffff1681565b60035481565b600260009054906101000a900473ffffffffffffffffffffffffffffffffffffffff1673ffffffffffffffffffffffffffffffffffffffff163373ffffffffffffffffffffffffffffffffffffffff161461050b57600080fd5b6105136108db565b50565b60075481565b6005818154811061052957fe5b90600052602060002090600302016000915090508060000160009054906101000a900473ffffffffffffffffffffffffffffffffffffffff16908060010154908060020154905083565b606060068054806020026020016040519081016040528092919081815260200182805480156105f757602002820191906000526020600020905b8160009054906101000a900473ffffffffffffffffffffffffffffffffffffffff1673ffffffffffffffffffffffffffffffffffffffff16815260200190600101908083116105ad575b5050505050905090565b600260009054906101000a900473ffffffffffffffffffffffffffffffffffffffff1673ffffffffffffffffffffffffffffffffffffffff163373ffffffffffffffffffffffffffffffffffffffff161461065b57600080fd5b7f000000000000000000000000000000000000000000000000000000000000000073ffffffffffffffffffffffffffffffffffffffff1663a9059cbb600260009054906101000a900473ffffffffffffffffffffffffffffffffffffffff167f000000000000000000000000000000000000000000000000000000000000000073ffffffffffffffffffffffffffffffffffffffff166370a08231306040518263ffffffff1660e01b815260040161071391906115d6565b60206040518083038186803b15801561072b57600080fd5b505afa15801561073f573d6000803e3d6000fd5b505050506040513d601f19601f82011682018060405250810190610763919061124e565b6040518363ffffffff1660e01b815260040161078092919061160c565b602060405180830381600087803b15801561079a57600080fd5b505af11580156107ae573d6000803e3d6000fd5b505050506040513d601f19601f820116820180604052508101906107d291906111c0565b50565b7f000000000000000000000000000000000000000000000000000000000000000073ffffffffffffffffffffffffffffffffffffffff163373ffffffffffffffffffffffffffffffffffffffff1614610863576040517f08c379a000000000000000000000000000000000000000000000000000000000815260040161085a906117d7565b60405180910390fd5b61086d8282610b86565b5050565b600260009054906101000a900473ffffffffffffffffffffffffffffffffffffffff1673ffffffffffffffffffffffffffffffffffffffff163373ffffffffffffffffffffffffffffffffffffffff16146108cb57600080fd5b8060048190555050565b60045481565b60006009547f000000000000000000000000000000000000000000000000000000000000000073ffffffffffffffffffffffffffffffffffffffff166370a08231306040518263ffffffff1660e01b815260040161093991906115d6565b60206040518083038186803b15801561095157600080fd5b505afa158015610965573d6000803e3d6000fd5b505050506040513d601f19601f82011682018060405250810190610989919061124e565b10156109ca576040517f08c379a00000000000000000000000000000000000000000000000000000000081526004016109c190611797565b60405180910390fd5b6109d8600854600954610bc3565b905090565b60606005805480602002602001604051908101604052809291908181526020016000905b82821015610a9d57838290600052602060002090600302016040518060600160405290816000820160009054906101000a900473ffffffffffffffffffffffffffffffffffffffff1673ffffffffffffffffffffffffffffffffffffffff1673ffffffffffffffffffffffffffffffffffffffff1681526020016001820154815260200160028201548152505081526020019060010190610a01565b50505050905090565b6004543414610ab457600080fd5b6006339080600181540180825580915050600190039060005260206000200160009091909190916101000a81548173ffffffffffffffffffffffffffffffffffffffff021916908373ffffffffffffffffffffffffffffffffffffffff1602179055503460075401600781905550565b600160009054906101000a900473ffffffffffffffffffffffffffffffffffffffff1681565b60068181548110610b5757fe5b906000526020600020016000915054906101000a900473ffffffffffffffffffffffffffffffffffffffff1681565b610bb16001610ba360068054905084610d2990919063ffffffff16565b610d8090919063ffffffff16565b600c81905550610bbf610dd5565b5050565b60007f000000000000000000000000000000000000000000000000000000000000000073ffffffffffffffffffffffffffffffffffffffff16634000aea07f000000000000000000000000000000000000000000000000000000000000000084866000604051602001610c37929190611709565b6040516020818303038152906040526040518463ffffffff1660e01b8152600401610c6493929190611635565b602060405180830381600087803b158015610c7e57600080fd5b505af1158015610c92573d6000803e3d6000fd5b505050506040513d601f19601f82011682018060405250810190610cb691906111c0565b506000610cd88460003060008089815260200190815260200160002054610ff3565b9050610d00600160008087815260200190815260200160002054610d8090919063ffffffff16565b60008086815260200190815260200160002081905550610d20848261102f565b91505092915050565b600080821415610d6e576040517f08c379a0000000000000000000000000000000000000000000000000000000008152600401610d65906117b7565b60405180910390fd5b818381610d7757fe5b06905092915050565b600080828401905083811015610dcb576040517f08c379a0000000000000000000000000000000000000000000000000000000008152600401610dc290611777565b60405180910390fd5b8091505092915050565b610ddd611070565b60405180606001604052806006600c5481548110610df757fe5b9060005260206000200160009054906101000a900473ffffffffffffffffffffffffffffffffffffffff1673ffffffffffffffffffffffffffffffffffffffff1681526020013073ffffffffffffffffffffffffffffffffffffffff163181526020016003548152509050600581908060018154018082558091505060019003906000526020600020906003020160009091909190915060008201518160000160006101000a81548173ffffffffffffffffffffffffffffffffffffffff021916908373ffffffffffffffffffffffffffffffffffffffff160217905550602082015181600101556040820151816002015550506006600c5481548110610efa57fe5b9060005260206000200160009054906101000a900473ffffffffffffffffffffffffffffffffffffffff1673ffffffffffffffffffffffffffffffffffffffff166108fc3073ffffffffffffffffffffffffffffffffffffffff16319081150290604051600060405180830381858888f19350505050158015610f81573d6000803e3d6000fd5b50600067ffffffffffffffff81118015610f9a57600080fd5b50604051908082528060200260200182016040528015610fc95781602001602082028036833780820191505090505b5060069080519060200190610fdf9291906110a7565b506000600781905550610ff0611062565b50565b60008484848460405160200161100c9493929190611732565b6040516020818303038152906040528051906020012060001c9050949350505050565b600082826040516020016110449291906115aa565b60405160208183030381529060405280519060200120905092915050565b600160035401600381905550565b6040518060600160405280600073ffffffffffffffffffffffffffffffffffffffff16815260200160008152602001600081525090565b828054828255906000526020600020908101928215611120579160200282015b8281111561111f5782518260006101000a81548173ffffffffffffffffffffffffffffffffffffffff021916908373ffffffffffffffffffffffffffffffffffffffff160217905550916020019190600101906110c7565b5b50905061112d9190611131565b5090565b5b8082111561116857600081816101000a81549073ffffffffffffffffffffffffffffffffffffffff021916905550600101611132565b5090565b60008151905061117b816119a3565b92915050565b600081359050611190816119ba565b92915050565b6000813590506111a5816119d1565b92915050565b6000815190506111ba816119d1565b92915050565b6000602082840312156111d257600080fd5b60006111e08482850161116c565b91505092915050565b600080604083850312156111fc57600080fd5b600061120a85828601611181565b925050602061121b85828601611196565b9150509250929050565b60006020828403121561123757600080fd5b600061124584828501611196565b91505092915050565b60006020828403121561126057600080fd5b600061126e848285016111ab565b91505092915050565b600061128383836112b6565b60208301905092915050565b600061129b8383611533565b60608301905092915050565b6112b081611915565b82525050565b6112bf816118c3565b82525050565b6112ce816118c3565b82525050565b6112dd816118b1565b82525050565b6112ec816118b1565b82525050565b60006112fd82611832565b611307818561186d565b935061131283611812565b8060005b8381101561134357815161132a8882611277565b975061133583611853565b925050600181019050611316565b5085935050505092915050565b600061135b8261183d565b611365818561187e565b935061137083611822565b8060005b838110156113a1578151611388888261128f565b975061139383611860565b925050600181019050611374565b5085935050505092915050565b6113b7816118e1565b82525050565b6113ce6113c9826118e1565b61197e565b82525050565b60006113df82611848565b6113e9818561188f565b93506113f981856020860161194b565b61140281611992565b840191505092915050565b600061141a601b836118a0565b91507f536166654d6174683a206164646974696f6e206f766572666c6f7700000000006000830152602082019050919050565b600061145a602b836118a0565b91507f4e6f7420656e6f756768204c494e4b202d2066696c6c20636f6e74726163742060008301527f77697468206661756365740000000000000000000000000000000000000000006020830152604082019050919050565b60006114c06018836118a0565b91507f536166654d6174683a206d6f64756c6f206279207a65726f00000000000000006000830152602082019050919050565b6000611500601f836118a0565b91507f4f6e6c7920565246436f6f7264696e61746f722063616e2066756c66696c6c006000830152602082019050919050565b60608201600082015161154960008501826112d4565b50602082015161155c6020850182611575565b50604082015161156f6040850182611575565b50505050565b61157e8161190b565b82525050565b61158d8161190b565b82525050565b6115a461159f8261190b565b611988565b82525050565b60006115b682856113bd565b6020820191506115c68284611593565b6020820191508190509392505050565b60006020820190506115eb60008301846112e3565b92915050565b600060208201905061160660008301846112c5565b92915050565b600060408201905061162160008301856112a7565b61162e6020830184611584565b9392505050565b600060608201905061164a60008301866112e3565b6116576020830185611584565b818103604083015261166981846113d4565b9050949350505050565b600060608201905061168860008301866112e3565b6116956020830185611584565b6116a26040830184611584565b949350505050565b600060208201905081810360008301526116c481846112f2565b905092915050565b600060208201905081810360008301526116e68184611350565b905092915050565b600060208201905061170360008301846113ae565b92915050565b600060408201905061171e60008301856113ae565b61172b6020830184611584565b9392505050565b600060808201905061174760008301876113ae565b6117546020830186611584565b61176160408301856112e3565b61176e6060830184611584565b95945050505050565b600060208201905081810360008301526117908161140d565b9050919050565b600060208201905081810360008301526117b08161144d565b9050919050565b600060208201905081810360008301526117d0816114b3565b9050919050565b600060208201905081810360008301526117f0816114f3565b9050919050565b600060208201905061180c6000830184611584565b92915050565b6000819050602082019050919050565b6000819050602082019050919050565b600081519050919050565b600081519050919050565b600081519050919050565b6000602082019050919050565b6000602082019050919050565b600082825260208201905092915050565b600082825260208201905092915050565b600082825260208201905092915050565b600082825260208201905092915050565b60006118bc826118eb565b9050919050565b60006118ce826118eb565b9050919050565b60008115159050919050565b6000819050919050565b600073ffffffffffffffffffffffffffffffffffffffff82169050919050565b6000819050919050565b600061192082611927565b9050919050565b600061193282611939565b9050919050565b6000611944826118eb565b9050919050565b60005b8381101561196957808201518184015260208101905061194e565b83811115611978576000848401525b50505050565b6000819050919050565b6000819050919050565b6000601f19601f8301169050919050565b6119ac816118d5565b81146119b757600080fd5b50565b6119c3816118e1565b81146119ce57600080fd5b50565b6119da8161190b565b81146119e557600080fd5b5056fea2646970667358221220bb2aea2aefcb4fa53d6be771236b80729e186fc634d2fa855f61aed133545aea64736f6c634300060c0033",
  "immutableReferences": {
    "77": [
      {
        "length": 32,
        "start": 1629
      },
      {
        "length": 32,
        "start": 1724
      },
      {
        "length": 32,
        "start": 2274
      },
      {
        "length": 32,
        "start": 3015
      }
    ],
    "79": [
      {
        "length": 32,
        "start": 2007
      },
      {
        "length": 32,
        "start": 3075
      }
    ]
  },
  "source": "// SPDX-License-Identifier: MIT\npragma solidity ^0.6.7;\npragma experimental ABIEncoderV2;\nimport \"@chainlink/contracts/src/v0.6/VRFConsumerBase.sol\";\n\ncontract RaffleVRF is VRFConsumerBase{\n    address public contractAddress; //reference only\n    address payable public manager; //contract owner\n    uint public roundNumber; //the raffle round identifier\n    uint public entryCost; //cost to enter the raffle in wei (have a setter for the admin)\n\n    /*\n    * Winners Record to keep all winners\n    */\n    struct Winner {\n        address winnerAddress;\n        uint256 winnerAmount;\n        uint round;\n    }\n    Winner [] public winnerRegistry; //keep all winners of this lottery\n    \n    /*\n    * Variables for each round\n    */\n    address payable[] public players;\n    uint256 public prizePool;\n\n    /*\n    * VRF Variables\n    */\n    bytes32 internal keyHash = 0x6c3699283bda56ad74f6b855546325b68d482e983852a7a82979cc4807b641f4;\n    uint256 internal fee = 0.1 * 10 ** 18;\n    address private LinkToken = 0xa36085F69e2889c224210F603D836748e7dC0088;\n    address private VRFCoordinator = 0xdD3782915140c8f3b190B5D67eAc6dc5760C46E9;\n    uint public randomWinnerNumber; //the index of the winning player in players array\n\n    //if you wanted more network flexibility you could pass in the vrf variables to the constructor instead\n    constructor() public VRFConsumerBase(VRFCoordinator, LinkToken){\n        manager = msg.sender;\n        roundNumber = 1;\n        contractAddress = address(this);\n        entryCost = 10000000000000000;\n        prizePool = 0; //set prizePool initial value\n        //VRF settings\n        // keyHash = 0x6c3699283bda56ad74f6b855546325b68d482e983852a7a82979cc4807b641f4; //for VRF\n        // fee = 0.1 * 10 ** 18;//100000000000000000; //for VRF\n    }\n\n    /**\n     * Restricted to owner only modifier to add to functions\n    */    \n    modifier ownerOnly() {\n        require(msg.sender == manager);\n        _;\n    }\n\n    /**\n    * @notice Enter the raffle\n    */\n    function enter() public payable {\n        //ensure the user is sending enough to enter\n        require(msg.value == entryCost);\n        //user can enter raffle as many times as they like for more chances\n        players.push(msg.sender);\n        //increment the value of the prizepool\n        prizePool = prizePool + (msg.value);\n    }\n\n    /**\n    * @notice Pick a raffle winner\n    */   \n    function pickWinner() public ownerOnly {\n        //because fulfilling a random number takes some time, we are going to move the\n        //actions for paying the winner and then resetting the raffle to another function which\n        //will be called from the fulfillRandomness function so that we know we have a random winner\n        getRandomNumber();\n    }\n\n    // /**\n    // * @notice pick a random number uses keccak - changed to Chainlink VRF\n    // */\n    // function getRandomNumber() private view returns (uint) {\n    //     //randomWinnerNumber = uint(keccak256(abi.encodePacked(now, block.difficulty, msg.sender)));\n    //     return uint(keccak256(abi.encodePacked(now, block.difficulty, msg.sender)));\n    // }\n\n    /** \n     * Requests randomness \n     * Returns a hash essentially (requestId)\n     */\n    function getRandomNumber() public returns (bytes32 requestId) {\n        require(LINK.balanceOf(address(this)) >= fee, \"Not enough LINK - fill contract with faucet\");\n        requestId = requestRandomness(keyHash, fee);\n    }\n\n    /**\n     * Callback function used by VRF Coordinator - sets the randomNumber used to decide the winner\n     */\n    function fulfillRandomness(bytes32 requestId, uint256 randomness) internal override {\n        randomWinnerNumber = randomness.mod(players.length).add(1);\n        //Once the random number is fulfilled we will deal with paying the winner\n        endRaffleRound();\n    }\n    \n    function endRaffleRound() private {\n         Winner memory newWinner =  Winner({\n            winnerAddress: players[randomWinnerNumber],\n            winnerAmount: address(this).balance,\n            round: roundNumber\n        });\n        winnerRegistry.push(newWinner);\n        //pay the winner\n        players[randomWinnerNumber].transfer(address(this).balance);\n        //clear the players array & prizePool\n        players = new address payable[](0);\n        prizePool = 0;\n        //increment the round number\n        incrementRoundNumber();\n    }\n\n    /**\n    * @notice increments the raffle round number\n    */\n    function incrementRoundNumber() private {\n        roundNumber = roundNumber+1;\n    }\n\n    /**\n    * @notice helper function to display players for frontends\n    */\n    function getPlayers() public view returns (address payable[] memory) {\n        return players;\n    }\n\n    /**\n    * @notice helper function to display winners for frontends\n    */\n    function getWinners() public view returns (Winner [] memory) {\n        return winnerRegistry;\n    }\n\n    /**\n    * @notice manager only functions\n    */\n    function setEntryCost(uint value) public ownerOnly {\n        entryCost = value;\n    }\n    \n    //testing only function that obviously should never go in the deployed contract (rugpull anyone!?)\n    function rugpullWithdrawEth() public ownerOnly{\n        manager.transfer(address(this).balance);\n    }\n    \n    /*\n     * @notice Withdraw LINK from this contract.\n     * @dev this is an example only, and in a real contract withdrawals should\n     * happen according to the established withdrawal pattern: \n     * https://docs.soliditylang.org/en/v0.4.24/common-patterns.html#withdrawal-from-contracts\n     */\n    function withdrawLink() public ownerOnly{\n        LINK.transfer(manager, LINK.balanceOf(address(this)));\n        // manager.transfer(address(this).balance);\n    }\n}",
  "sourcePath": "/Users/alisonhaire/Desktop/Blockchain/Chainlink/chainlink-keepers/contracts/RaffleVRF.sol",
  "compiler": {
    "name": "solc",
    "version": "0.6.12+commit.27d51765.Emscripten.clang"
  },
  "schemaVersion": "3.4.1",
  "updatedAt": "2021-07-19T11:15:05.690Z",
  "networkType": "ethereum",
  "devdoc": {
    "kind": "dev",
    "methods": {},
    "version": 1
  },
  "userdoc": {
    "kind": "user",
    "methods": {
      "enter()": {
        "notice": "Enter the raffle"
      },
      "getPlayers()": {
        "notice": "helper function to display players for frontends"
      },
      "getRandomNumber()": {
        "notice": "Requests randomness  Returns a hash essentially (requestId)"
      },
      "getWinners()": {
        "notice": "helper function to display winners for frontends"
      },
      "pickWinner()": {
        "notice": "Pick a raffle winner"
      },
      "setEntryCost(uint256)": {
        "notice": "manager only functions"
      }
    },
    "version": 1
  }
}